:400000000010002011000000150600001506000080B500AF00F008FB80B500AF124B124A12688021C9020A431A60182000F0FEFE0D4B0D4A12680D490A401A600C4B0D4A13
:400040001A600D4B10221A600C4B802212061A60054B00221A600A4B0A4A1A600A4B00221A60C046BD4680BD00010B40FFFFFBFF04010B40060000803002024008010B404F
:4000800000000240010000800C020B4080B586B000AF72B61723FB1800221A7025E01723FB181A7813005B009B185B005D4A9B183B613B691A78597809020A439978090416
:4000C0000A43DB781B06134318003B691A795B791B0213439BB2190000F034FA1723FB181A781723FB1801321A701723FB181B78022BD4D91723FB1800221A7036E01723E3
:40010000FB181A7813009B009B185B00464A9B18FB60FB681A78597809020A43997809040A43DB781B061343BB60FB681A79597909020A43997909040A43DB791B061343FB
:400140007B60BA1CFB68197A5B7A1B020B431380BB1C1A887968BB68180000F003FA1723FB181A781723FB1801321A701723FB181B78002BC3D02D4A2D4B1100180000F0F4
:4001800001FA2C4BC02292041A602B4B2B4A1A602B4B992212041A602A4B802292051A60294B992212041A60284B992212041A60274B992212041A60264B982212061A6096
:4001C000254A254B1B78DBB23C218B43DBB214210B43DBB21370214A204B1B78DBB216210B43DBB213701E4BC3221A601D4B1E4A1A601E4BC02252031A601D4B40221A60BA
:400200001C4B802212031A601B4BF0221A601B4B1B4A1A60FFF700FF00F0F6F9C046BD4606B080BD884400009C440000CC440000A8440000000001400C00014000EE0303F5
:4002400000500F4008500F4010500F4020500F4030500F4038500F4001700F4000700F400000044008000440920D58000801044000020440080204400003044008030440A7
:40028000B66D590010B5064C2378002B07D1054B002B02D0044800E000BF0123237010BD480100200000000080440000084B10B5002B03D00749084800E000BF0748036815
:4002C000002B00D110BD064B002BFBD09847F9E7000000004C01002080440000C800002000000000B0B58CB002AFF860B9607A603B60344B344C3B627C62386804F022F8B6
:4003000004000D00786804F01DF83A6A7B6A03F015FA02000B001000190000222B4B02F0E9FD02000B001000190000F047FF02000B002000290003F001FA03000C001800BB
:40034000210003F0C9FF0300FB61386803F0FAFF04000D00786803F0F5FF3A6A7B6A03F0EDF902000B00100019000022174B02F0C1FD02000B001000190000F065FF020086
:400380000B002000290003F0D9F903000C001800210003F0A1FF0300BB61FA68FB69D3187B61BA68BB69D3183B617C693A69B968F868BB6B0093230000F06EFBC046BD4689
:4003C0000AB0B0BD1F85EB51B81E09400080664080B58AB002AFBB1D3E221A803B1D3E221A8000F0D5F9012000F0D8FB012000F081FE012000F0A6FE012000F053FE002004
:4004000000F0FEF91E23FB1800221A8017E0BB1D0020185E3B1D0021595E1E23FB1800229A5EFF231B0100F08FFA1E23FB1800229B5E9BB201339AB21E23FB181A801E23A0
:40044000FB1800229B5E312BE1DD0023BB611BE0BB1D0020185E3B1D0021595EBA69002300933223FFF73EFFBB1D0020185E3B1D0021595EBB695A42002300933223FFF79C
:4004800031FFBB690133BB61BB69222BE0DD79237B6124E000233B610AE0BB1D0020185E274B3A69796900F04FFA3B6901333B613B69042BF1DD0023FB600AE0BB1D002032
:4004C000185EFA687969002300F03EFAFB680133FB60FB68042BF1DD7B69013B7B613B1D00229B5E14331A007B699A42D2DB4623FF33BB601DE0BB1D0020185E3B1D0021CE
:40050000595EBA68FF231B0100933223FFF7EAFEBB1D0020185E3B1D0021595EBB685A42FF231B0100933223FFF7DCFEBB680133BB60BA686823FF339A42DCDD85E7C04633
:400540006A0F000080B582B000AF786039603A687B680021180003F08AFFC046BD4602B080BDC04680B584B000AFF860B9607A607A68B968FB68180003F070FFC046BD46F7
:4005800004B080BD80B586B000AF7860396000233B6100237B612FE07B699B007A68D3181B68BB600F23FB18BA681A70BB68FF229343BB6018E03B695B003A68D3181B78CB
:4005C0001A00BB68D31819003B695B003A68D3185B780B703B6901333B610F23FB181A780F23FB18013A1A700F23FB181B78002BE1D17B6901337B617B69082BCCD9C04620
:40060000BD4606B080BDC04680B500AFC046BD4680BDC04680B500AF03F0F4FE03001B680C2B00D1FEE7FEE780B586B000AF224B7B61224B3B61204B7B6135E03B691B687E
:40064000FB603B695B68BB603B699B683B6000237B600CE0FB681A68BB681A60BB680433BB60FB680433FB607B6804337B607A683B689A42EED13B69DB683B6000237B60F0
:4006800008E0BB6800221A60BB680433BB607B6804337B607A683B689A42F2D13B6910333B617B69013B7B617B69002BC6D103F0AFFEFFF78DFEFEE7010000009049000000
:4006C00080B582B000AF00237B600FE07B68032B04D8104B7A689200D35800E00E4B0F4A796889008B507B6801337B607B682F2BECD9FFF7CBFC0A4B00221A608023DB0514
:400700008022D205126801210A431A60C046BD4602B080BD000000001506000000000020C000002080B582B000AF7860C04600F0F1FA03001A0011231340F8D07B689BB25F
:40074000180000F007FBC046BD4602B080BDC04680B584B000AF78607B681BB28022520013431AB20E23FB181A80C04600F0D2FA03001A0011231340F8D00E23FB181B88C8
:40078000180000F0E7FAC046BD4604B080BDC04680B500AF00F0A0FA142000F06FFC002000F022FAC82000F043FCFF2000F01CFAC82000F03DFC1120FFF7B4FF0320FFF7E7
:4007C000B1FF2920FFF7AEFF3A20FFF7ABFF0320FFF7BEFF3620FFF7A5FF2520FFF7A2FF3020FFF7B5FF0020FFF79CFF3C2000F053F8002000F004F8C046BD4680BDC04627
:4008000080B584B000AF78602B20FFF78BFF0020FFF79EFF8320FFF79BFF2A20FFF782FF0020FFF795FF8320FFF792FF2C20FFF779FF0023FB601AE07B681B111A00FF2305
:4008400013401800FFF784FF7B681B01FF221A407B681B1213431800FFF77AFF7B68FF2213401800FFF774FFFB680133FB60FB68064A9342E0D9064B00221A60054B0022C3
:400880001A60C046BD4604B080BDC04683210000640100206801002080B582B000AF78607B687F2213407B602520FFF73BFF7B681800FFF74DFFC046BD4602B080BDC046BC
:4008C00080B584B000AFF860B9607A60BB688322D31ABB60FB688322D31AFB602B20FFF721FFFB68FF2213401800FFF731FFFB68FF2213401800FFF72BFF2A20FFF712FF9F
:40090000BB68FF2213401800FFF722FFBB68FF2213401800FFF71CFF2C20FFF703FF7B681B111A00FF2313401800FFF711FF7B681B011A00FF2313401800FFF709FFC04687
:40094000BD4604B080BDC04680B58AB000AFF860B9607A603B607B680122D31A7B6200233B627A681300DB079B1A5B00FB610023BB617B687B61BA687B68D1183A68FB68B5
:400980001800FFF79DFFBA687B68D11A3A68FB681800FFF795FFFA687B68D3183A68B9681800FFF78DFFFA687B68D31A3A68B9681800FFF785FF67E07B6A002B09DB7B69C3
:4009C000013B7B61FB690233FB617A6AFB69D3187B62BB690133BB613B6A02333B623B6A01337A6AD3187B62FA68BB69D018BA687B69D3183A681900FFF762FFFA68BB6973
:400A0000D01ABA687B69D3183A681900FFF758FFFA68BB69D018BA687B69D31A3A681900FFF74EFFFA68BB69D01ABA687B69D31A3A681900FFF744FFFA687B69D018BA68CD
:400A4000BB69D3183A681900FFF73AFFFA687B69D01ABA68BB69D3183A681900FFF730FFFA687B69D018BA68BB69D31A3A681900FFF726FFFA687B69D01ABA68BB69D31AA2
:400A80003A681900FFF71CFFBA697B699A4293DBC046BD460AB080BD80B58AB000AFF860B9607A603B603A68BB68D31A7B627A68FB68D31A3B627B6A002B06DA7B6A5B4245
:400AC0007B6201235B42BB6101E00123BB613B6A002B06DA3B6A5B423B6201235B42FB6101E00123FB617B6A5B007B623B6A5B003B623A6BB968FB681800FFF7E1FE3A6A9A
:400B00007B6A9A4223DD3B6A5B107A6AD31A7B6118E07B69002B07DBBA68BB69D318BB607A693B6AD31A7B61FA68FB69D318FB607A697B6AD3187B613A6BB968FB681800D5
:400B4000FFF7BEFEFA687B689A42E2D122E07B6A5B103A6AD31A3B6118E03B69002B07DBFA68FB69D318FB603A697B6AD31A3B61BA68BB69D318BB603A693B6AD3183B618F
:400B80003A6BB968FB681800FFF79AFEBA683B689A42E2D1C046BD460AB080BD80B584B000AF0200FB1D1A700E4B1B68DAB20F23FB1801218A431A70FB1D1B78012213400F
:400BC000D9B20F23FB180F22BA1812780A431A70044B0F22BA1812781A60C046BD4604B080BDC0460003044080B584B000AF0200FB1D1A700F4B1B68DAB20F23FB18022197
:400C00008A431A70FB1D1B78DB18DBB202221340D9B20F23FB180F22BA1812780A431A70044B0F22BA1812781A60C046BD4604B080BDC0460003044080B500AF084B112280
:400C40001A7000F0A1F800F065F800F073F8054B00221A70044B00221A70C046BD4680BD81000F4082000F4080000F4090B583B000AFFC1D00F09AFA03002370134A134BF7
:400C80001B78DBB220210B43DBB21370104A104B1B78DBB210210B43DBB213700D4A0D4B1B78DBB210210B43DBB21370FB1D1B78180000F07FFA00F0ABF800F01FF800F0FD
:400CC00023F8C046BD4603B090BDC04691000F4092000F4090000F4080B500AF064B1B78002B04D1FFF7A8FF034B01221A70FFF7BDFFC046BD4680BD6C01002080B500AF61
:400D0000C046BD4680BDC04680B500AFC046BD4680BDC04680B582B000AF054AFB1D12781A70FB1D1B781800BD4602B080BDC04662000F4080B582B000AF054AFB1D127833
:400D40001A70FB1D1B781800BD4602B080BDC04660000F4080B582B000AF0200BB1D1A80C046074B1B78DBB21A0004231340F8D0044ABB1D1B881380C046BD4602B080BDCD
:400D800062000F4084100F4090B583B000AF01E01B4B1B881B4B1B78DBB21A0020231340F6D1FC1D00F002FA03002370164A164B1B78DBB201210B43DBB21370124A124BDC
:400DC0001B78DBB201218B43DBB213700F4A0F4B1B78DBB201210B43DBB213700B4A0B4B1B78DBB201218B43DBB21370FB1D1B78180000F0DFF9C046BD4603B090BDC0461B
:400E0000A4100F4060000F4092000F4093000F4080B500AF044B044A1268802109060A431A60C046BD4680BD0000024090B585B000AF78600C23FC1800F0B8F903002370C8
:400E40007B68022B00D8B3E07B68302B00D9AFE05E4B1B78DBB21A007B689A420AD35C4A0F23FB1812781A705A4A0E23FB1812781A703FE0584B1B78DBB21A007B689A421C
:400E80000AD3564A0F23FB1812781A70544A0E23FB1812781A702DE0524B1B78DBB21A007B689A420AD3504A0F23FB1812781A704E4A0E23FB1812781A701BE04C4B1B78DE
:400EC000DBB21A007B689A420AD34A4A0F23FB1812781A70484A0E23FB1812781A7009E0464A0F23FB1812781A70454A0E23FB1812781A707B68DA1E0B23FB1841498A5C93
:400F00001A700B23FB181B782F2B0DD97B682A2B0AD93D4B19221A60052000F03DF90D23FB1819221A7007E0374B1B68DAB20D23FB183F210A401A700B23FA180D23FB18F6
:400F400012781B789A4208D22F4B7A68033A2D498A5C1A60052000F01FF97B68284A9A180A23FB1812781A70284B0A22BA1812781A60274B0F22BA1812781A60254B0E2219
:400F8000BA1812781A60052000F078F80B23FA180D23FB1812781B789A420CD91A4B7A68033A18498A5C1A60052000F0F5F802E0002000F031F80C23FB181B78180000F036
:400FC000F9F8C046BD4605B090BDC046C0F1FF0FC1F1FF0FC2F1FF0FC3F1FF0FC4F1FF0FC5F1FF0FC6F1FF0FC7F1FF0FC8F1FF0FC9F1FF0FCAF1FF0FCBF1FF0FCCF1FF0FEE
:40100000CDF1FF0FE04600002CFF0B4028FF0B401CFF0B4020FF0B4080B582B000AF0200FB1D1A7001BEC046BD4602B080BDC04680B582B000AF786009E00D4B1B681800C5
:4010400000F0AAF87B680B4A944663447B607A6880231B029A42F0D8074B1B687A685343180000F099F8C046BD4602B080BDC046D80000200080FFFFD000002080B582B053
:4010800000AF0200BB1D1A80BB1D1B88044A12785343180000F080F8C046BD4602B080BDD400002080B584B000AF0200FB1D1A700F4B1B68DAB20F23FB1840218A431A7096
:4010C000FB1D1B789B01DBB240221340D9B20F23FB180F22BA1812780A431A70044B0F22BA1812781A60C046BD4604B080BDC0460001044080B584B000AF0200FB1D1A70DC
:401100000F4B1B68DAB20F23FB1808218A431A70FB1D1B78DB00DBB208221340D9B20F23FB180F22BA1812780A431A70044B0F22BA1812781A60C046BD4604B080BDC04667
:401140000000044080B584B000AF0200FB1D1A700F4B1B68DAB20F23FB1804218A431A70FB1D1B789B00DBB204221340D9B20F23FB180F22BA1812780A431A70044B0F2245
:40118000BA1812781A60C046BD4604B080BDC04600000440000000000230800804D0C0460138FDD1C046C046C0467047EFF3108072B6704780F310887047C04630B5204A49
:4011C0004B0087B05B0893421CDD1E4A934205DD02000B0002F02CFD07B030BD02AA00F07BF803231840049A059B012818D002280DD000281ED0029803990124009400F079
:40120000DDFFE9E70022002300F06CFAE4E70298039900F067FA80231B069C466144DBE700900298039900F0C9FF80231B069C466144D1E70298039900F054FACCE7C0465A
:40124000FB21E93FFFFFEF7F30B5214A4B0087B05B0893421EDD1F4A934205DD02000B0002F0E6FC07B030BD02AA00F035F803231840049A059B01281ED0022811D0002845
:401280001FD00298039900F02DFA80231B069C466144E7E7002300220093002300F08EFFE0E7012402980399009400F087FF80231B069C466144D5E70298039900F012FAFC
:4012C000D0E7012402980399009400F077FFC9E7FB21E93FFFFFEF7FF0B54E4657464546E0B4DC4B4E0090B01700894676089E4200DC81E0D84B9E4220DCD84A002900DC31
:4013000089E1D74B02F094FCD54B04000D009E4200D18AE0D34AD44B02F08AFC02000B0020003A607B60290002F082FCCD4ACE4B02F07EFCB860F960012066E0CB4B9E42FA
:4013400000DC8DE0CA4B9E4265DCCA4932158A46924453461B05F51A2900040002F0BCFF02F0F0FF02000B00200029000A920B9302F05EFC0022C04B02F0E0F90290039171
:4013800002F0AAFF02F0DEFF04000D0002000B00029803990C940D9502F04AFC0022B64B02F0CCF9002200230E900F9101F048FA002800D14CE1002300222000290001F0C0
:4013C0003FFA0222431E9841131AAC4A3900019202220AA80092524600F09EFA4B46002B13DA8022120694467B68404263447B60FB686344FB6008E002000B003A607B60EC
:40140000002200230020BA60FB6010B01CBC90469946A246F0BD02000B0002F009FCB860F960386079600020EFE7D3228E4B520502F0FEFB924A934B04000D0002F0F8FB54
:4014400002000B0020003A607B60290002F0F0FB8B4A8C4B02F0ECFBB860F9600120D4E700F05CFF884A894B04000D0002F066F90022874B01F012FA02F02EFF804602F0D7
:4014800061FF764A764B0690079102F057F902000B002000290002F0CBFB734B02900391069807996F4A02F049F9434604000D00049405951F2B30DC013B764A9B009B5812
:4014C0009E422AD002000B000298039902F0B0FB02000B0005000C003A607B60029803992A00230002F0A4FB049A059B02F0A0FB06000B003200BA60FB604B464046002BC6
:4015000000DB82E780231B069C46644461443D607C60BE60F960404277E7049A059B0298039902F085FB0B0002003A607B604B0036155B0D05000C00F31A102BCEDD06989C
:401540000799D322484B520502F0F8F804000D0002000B000298039902F06AFB02000B00029803990892099302F062FB22002B0002F05EFB04000D0006980799404A414B9A
:4015800002F0DCF822002B0002F052FB02000B00049005910898099902F04AFB02000B003A607B604B005B0DF61A0500089A099B0C0002920393312E90DD06980799B8227F
:4015C000304B920502F0BAF804000D0002000B000298039902F02CFB0A00010013000291039202000898099902F022FB22002B0002F01EFB04000D0006980799264A274BA6
:4016000002F09CF822002B0002F012FB02000B000492059358E7124B01F040F9104B04000D009E423CD00F4A0F4B01F037F902000B0020003A607B60290002F0F9FA094AA8
:40164000094B01F02BF9B860F96001204042DCE60323BAE6FB21E93F7BD9024000004054FB21F93F3163621A61B4D03DFB213941FFFFEF7FEAFBFFFF000070419047000004
:401680007370032E8A19A33B83C8C96D305FE43F0000E03F10470000C14920259A837B39D3220D4B520501F0F9F80C4A0C4B04000D0001F0F3F802000B0020003A607B600A
:4016C000290002F0B5FA054A054B01F0E7F8B860F9600120404298E661B4D03D7370032E8A19A33BF0B54F464646C0B487B000920193754B4F00814688467F089F4263DC86
:4017000002F0EAFD002800D1DAE04A4643464846414602F013F804000D006C4A6C4B02F00DF86C4A6C4B01F0B9F822002B0002F005F86A4A6A4B02F07BFA22002B0001F024
:40174000FDFF684A684B01F0A9F822002B0001F0F5FF664A664B02F06BFA22002B0001F0EDFF644A644B01F099F822002B0001F0E5FF029003910022604B2000290001F034
:40178000DDFF029A039B06000F002000290001F0D5FF009A019B04000D004846414601F0CDFF02000B002000290002F041FA02000B003000390002F03BFA02000B0000208A
:4017C0004F4902F035FA70E002000B0001F0B6FF04000D003D4A3E4B01F0B0FF3D4A3E4B01F05CF822002B0001F0A8FF3B4A3C4B02F01EFA22002B0001F0A0FF394A3A4B37
:4018000001F04CF822002B0001F098FF374A384B02F00EFA22002B0001F090FF354A364B01F03CF82B00220001F088FF354B029003919F429FDD344B00229F423ADC3349D2
:4018400000207B182E4916001F0002F0F1F9049005910022294B2000290001F06FFF32003B0002F0E5F9029A039B06000F002000290001F063FF009A019B04000D004846C8
:40188000414601F05BFF02000B002000290002F0CFF902000B003000390002F0C9F902000B000498059902F0C3F907B00CBC90469946F0BD164B002604920593154FC8E77E
:4018C00000200F49F1E7C046FFFF3F3ED43888BEE9FAA8BDC4B1B4BD9EEE213EAD529C804F7E923E9015CB19A001FA3E7751C1166CC1563F4C5555555555A53F0000E03F39
:401900000000F03F3233D33F0000E93F0000E0FF0000E73F0000D23FF0B556464D4644465F46F0B4904CA544099119001400A89A0B938E4B9200D2580B000290013BE01E44
:4019400018211D0016000892009300F07DFEC3430200DB171A401300110001330E929A009B1ADB001B1906934C1B761918D4A99BA5009C46361926AF6544013607E02868F8
:4019800002F0E0FC013403C70435B44208D0002CF5DA00200021013403C70435B442F6D1089B002B01DA00F0FDFB76AB0A939A46009B0B9A9946089B94469B46D300E3447C
:4019C0009C46029A059362449046009B002B00DABBE14B46DC0026AB9C4600260027029D64442268636803CD01F0A8FE02000B003000390000F052FF083C06000F0045450F
:401A0000EFD15346C0C39A4601239C46E144D945DBD1089A564913008C4663449B0012A8844619000298614484460D910599043361448B4612A98C4663440F930592059AF2
:401A40000A98D30019000C938C46030063441E685F68002A34DD12AB99461300454A804694466344DB00984474AB9A460022424B3000390001F062FE02F02EFC02F062FC25
:401A800000223E4B04000D0001F058FE02000B003000390002F0CCF802F01EFC4B4601C39946434620001A685B68290000F0F6FE08235B429C46E04406000F00D045D5D11E
:401AC000069B30001A003900994600F0C3FCFF2300229B0504000D0001F030FE00F022FC0022274B01F02AFE02000B002000290002F09EF804000D0002F0EEFB804602F0E3
:401B000021FC02000B002000290002F091F84C4606000F00002C00DCF8E0059B18205A1E920012AB9B58001B19000141884481405B1A12A98B501722121B13410793079B9A
:401B4000002B4BDD01239C46059BE044002B00DCF2E280251096119712AB0021002409486D04059F19E0C04684FDFFFF98480000FEFFFF3FFFFFFF1F0000703E00007041FE
:401B800000002040FFFFFF00002A02D0AA1A1A600134013104338F4209DD1A68002CF3D0821A01311A60012404338F42F5DC109E119F069B002B0EDD012B00D1B1E0022BB2
:401BC00009D1059B12A95A1E920012AB9B5810939B029B0A8B50079B022B7ED0002300223000390000F02CFE059B002800D16BE208995A1E914210DCBF490F988C4612A957
:401C000063448C4600219B0063441C68043B21438342FAD1002900D0B5E0089B12AA013B9B00D358002B00D084E201220D9B043B596801320029FAD005990B008C46013321
:401C400062440792934242DC0E9A9446A99A634492460B9A9B00944626AA90469A44059B0A9A6344DB0098440C9B94469946079BE144DB00634405935346186802F062FB05
:401C8000434618605960009B002B23DB444600260027029D2268636803CD01F04FFD02000B003000390000F0F9FD083C06000F005D45EFD14B469E60DF6004239C460433A9
:401CC000E2449C46059BE144E0449945D4D1079B0593B4E600260027ECE732003B000020864901F0A5FF06000F00002C00D175E7069A0020814900F0ADFB02000B003000BE
:401D0000390001F095FF06000F0067E7069B002B12D1059B12AA013B9B00D558EB1507930DE7059B12A95A1E920012AB9B5810935B025B0A8B504EE70022714B00F0A4FDEC
:401D400000280ED10023079348E7534600260027C0C39A4601239C46E144D94500D034E657E601239C4601330793059BE044002B00DDEEE632003B000020604901F058FFC5
:401D800006000F002AE743460B93069B12A8183B190006939300C3580092002B0FD156481300844612A8634484469B006344043B5868013A18390028F9D000920691069AFE
:401DC00000204E4900F046FB009B04000D00002B00DAB3E112AA94469F00DB0067449C460A9A0593624493461600386802F0AAFA22002B0001F0A2FC424B30607160002226
:401E00002000290001F09AFC083E74AB04000D00043FB342E9D100239A464EAB0293089B99464B4600260027002B21DB8020364B5D469846C005354900260027002408E014
:401E400008239C460835E044A24511DB4346186859682A686B6801F071FC02000B003000390000F01BFD013406000F00A145E7DA029A53469446DB0063441E605F60012333
:401E80009C46093BE2449C4674ABE3449B45C8D1029B9946A89B022B00DD82E0002B37DC1DD1059B00254B441E000024326873682800210000F0F2FC009B05000C00083EBA
:401EC0005A1E0092F2D2079B002B03D080231B069C4664442A00230009990A604B6007200B9B18409F239B009D443CBC90469946A246AB46F0BDC046FFFFFF3F0000F03F1B
:401F00000000E03F0000703EA8480000FB21F93F059B00204B441E0000214CAF32687368083E00F0BBFCBE42F8D1079B002B24D08023099A1B06CB18106053600B000200A1
:401F40004E984F9901F074FE009B002B0BDD012450AD0CCD00F0A2FC009B0134A342F8DA079B002B03D080231B069C4661440B00020009998A60CB60B1E702000B00099C79
:401F8000226063600B0002004E984F9901F050FE009B002BDBDC0B00020009998A60CB609DE7A89B032B9AD1009B002B00DCE3E07F4A059B94464B441E685F68009B63445B
:401FC0009A46DB004B4498464CAB9B4643465C681B681800210032003B000290039100F05DFC04000D0002000B000298039901F01FFE3B00320000F051FC43469860D96036
:402000001C605D6008235B429C46E04426002F00C345DBD1009B012B00DCADE0059BC8464B441E685F685346DB009B46D844434630005C681B683900009301941A002300C7
:4020400000F02CFC04000D0002000B000098019901F0EEFD3B00320000F020FC43469860D9601C605D6008235B429C46E04426002F00C145DBD15D460027002408354D441F
:4020800050AE2A686B683800210000F007FC083D07000C00AE42F4D1079B002B71D08021099A4E9B090613604B468C465B686444634453604B469B68176193604B46DB68AC
:4020C00054616344D3600AE7994643460B93069B30005A42390000F0BDF90022354B04000D0000F0D1FB002832D0334B00222000290001F023FB02F0EFF84A460600970077
:4021000002F020F900222B4B01F018FB02000B002000290001F08CFD02F0DEF812AAD0514A46069B0132183300920693930012AAD65044E601227FE500243AE5A89B022BD0
:4021400014DC002B0FDC00D0C9E600250024BAE64B46200029009E0002F0BEF812AB98514B4600932BE600200021DEE64EAB9946A89B032B00D0B2E6079B00270024002B28
:402180008DD14E9A4F9B09990A604B604B469A68DB68009201938A60CB603A0023000A614B619CE676AB0A930B9BDB00059330E4FFFFFF1F000070410000703EF0B54F4691
:4021C0004646C0B487B000920193464A4B00814688465B08934205DC02F07EF84146031E484666D04A4643464846414601F0A6FA04000D0002000B004846414601F09EFAAA
:40220000394A3A4B06000F002000290001F096FA374A384B01F00CFD22002B0001F08EFA354A364B00F03AFB22002B0001F086FA334A344B01F0FCFC22002B0001F07EFA75
:40224000314B324A00F02AFB0E9B02900391002B34D00098019900222D4B01F06FFA029A039B049005913000390001F067FA02000B000498059901F0DBFC22002B0001F0C1
:402280005DFA009A019B01F0D3FC224A04000D00214B3000390001F051FA02000B002000290000F0FBFA02000B004846414601F0BFFC07B00CBC90469946F0BD02000B004C
:4022C0002000290001F03AFA124A134B01F0B0FC32003B0001F032FA4A46434600F0DEFAE7E7C046FFFF3F3E7CD5CF5A3AD9E53DEB9C2B8AE6E55A3E7DFEB157E31DC73E89
:40230000D561C119A0012A3F1111813FA6F810110000E03F495555555555C53F49004B0819007047454AF8B5564692464B005B0D9A444D465F4644465246F0B4894605004E
:402340000C000E000700132A22DC002A47DB52463B4B134198460B0042461340034311D0384A394B00F09AFA0022002300F082FA002805D0002C41DB4E46434600279E43B3
:40238000380031003CBC90469946A246AB46F8BD5246332A08DD8023DB009A45F2D102000B0000F07BFAEDE7284A9446012263445242DA4093460242E4D0224A224B00F0DB
:4023C0006DFA0022002300F055FA0028D8D0002C1ADB5B464E469F4338003100D2E7194A194B00F05BFA0022002300F043FA0028C6D0002C16DB00270026C1E7802352463F
:402400005B0313419944B7E75346142B12D03423524601279B1A9F407F19AF429B415B429944D6E76400640825430027002DA7D0074EA5E7133B9C46E144CAE701FCFFFF89
:40244000FFFF0F009C7500883CE4377EEDFBFFFF0000F0BF4B0070B55B0D14000A00002B1AD14B005B08034315D00022224B01F065F9224B0A009C4222DB4B005B0D363B13
:402480001F4DE318AB4220DC002B0DDD1D4C1B0522401A43110070BD1B4DAB42F0D102000B0000F0FBF9F6E71D00353518DA174B02009C420ADC0B001548164900F032F8CB
:4024C000134A144B01F03AF9E5E702000B001248124900F027F8104A104B01F02FF9DAE7084C363322401B051343190000220C4B01F024F9CFE7C04600005043B03CFFFF62
:40250000FE070000FFFF0F80FF07000050C3000059F3F8C21F6EA5019C7500883CE4377E0000903C30B54A00DB0FDB0752081A43110030BD002243088B4274D303098B4273
:402540005FD3030A8B4244D3030B8B4228D3030C8B420DD3FF22090212BA030C8B4202D31212090265D0030B8B4219D300E0090AC30B8B4201D3CB03C01A5241830B8B42DA
:4025800001D38B03C01A5241430B8B4201D34B03C01A5241030B8B4201D30B03C01A5241C30A8B4201D3CB02C01A5241830A8B4201D38B02C01A5241430A8B4201D34B026D
:4025C000C01A5241030A8B4201D30B02C01A5241CDD2C3098B4201D3CB01C01A524183098B4201D38B01C01A524143098B4201D34B01C01A524103098B4201D30B01C01AA2
:402600005241C3088B4201D3CB00C01A524183088B4201D38B00C01A524143088B4201D34B00C01A5241411A00D20146524110467047FFE701B5002000F0F0F802BDC0462E
:402640000029F7D076E7704703460B437FD4002243088B4274D303098B425FD3030A8B4244D3030B8B4228D3030C8B420DD3FF22090212BA030C8B4202D31212090265D050
:40268000030B8B4219D300E0090AC30B8B4201D3CB03C01A5241830B8B4201D38B03C01A5241430B8B4201D34B03C01A5241030B8B4201D30B03C01A5241C30A8B4201D34A
:4026C000CB02C01A5241830A8B4201D38B02C01A5241430A8B4201D34B02C01A5241030A8B4201D30B02C01A5241CDD2C3098B4201D3CB01C01A524183098B4201D38B01AA
:40270000C01A524143098B4201D34B01C01A524103098B4201D30B01C01A5241C3088B4201D3CB00C01A524183088B4201D38B00C01A524143088B4201D34B00C01A5241F4
:40274000411A00D201465241104670475DE0CA0F00D04942031000D34042534000229C4603098B422DD3030A8B4212D3FC22890112BA030A8B420CD3890192118B4208D33B
:40278000890192118B4204D389013AD0921100E08909C3098B4201D3CB01C01A524183098B4201D38B01C01A524143098B4201D34B01C01A524103098B4201D30B01C01A9A
:4027C0005241C3088B4201D3CB00C01A524183088B4201D38B00C01A5241D9D243088B4201D34B00C01A5241411A00D20146634652415B10104601D34042002B00D54942DD
:40280000704763465B1000D3404201B5002000F005F802BD0029F8D016E770477047C0468446101C62468C46191C634600E0C0461FB500F019FF002801D40021C8421FBD80
:4028400010B500F06DFE4042013010BD10B500F00BFF002801DB002010BD012010BDC04610B500F001FF002801DD002010BD012010BDC04610B500F093FE002801DC00200D
:4028800010BD012010BDC04610B500F089FE002801DA002010BD012010BDC046F8B556465F464D464446F0B40F00FD0FAA4609037C002E005F00450F490A7F0D2943C50004
:4028C0001803BC46400A570F640DDB0F3843D2009A4500D1AAE06646A61B002E00DCFFE06346002B39D10300134300D0D9E06B0709D00F232B40042B05D02B1DAB42AD4104
:402900006D4249191D000B0200D482E0CA4B01349C4200D1FEE00A005646C84BED081A405007640552020543120B640D002112030B0D1B056405120B1A436308C04CF60798
:4029400014401C43640064083443280021003CBC90469946A246AB46F8BDB74B9C42C6D080231B041843382E00DDEBE01F2E00DD1EE120239B1B9C4603006746BB409846AB
:4029800013004746F3403B436746BA40571EBA4113430200F240EB1A9D42B6411D008A1A7642911B0B0231D54A02560A002E00D1B4E0300001F008FD0300083B1F2B00DD40
:4029C000B5E020222900D21AD1409E400A009D4032439C4200DDB1E01C1B631C1F2B00DDD5E0202114002800C91A8C40D8408D400443DA40681E854111002543002476E70A
:402A00004146314300D134E2310045466B0700D06FE756464807ED08C9080543864B9C4235D00A036405120B640D7FE76346E31A9B46002B00DC8BE06746002F3CD07E4F9B
:402A4000BC4200D153E780273F0438435B46382B00DCF7E00243501E82410020D2B253194218AB4289411D00494289180B02CDD5714B01349C4200D13DE101206F4A6B0897
:402A80000A4028401843D507054351082FE72B000B4300D1CBE180231B030B431A03120B44E7013E002E6DD1AE1AB5429B41091A5B42C91A350075E70700174300D116E763
:402AC00001235B429C46E3445B46002B00D0E0E0AA18AA429B4109185B4259181500C5E7002E75D1661C7605760D012E00DCF3E0AE1AB0464545BF410E1A7F42F61B3702E9
:402B000000D48FE0551BAA42B641411A76428E1B9A464BE756460022002507E7280001F053FC20300300083B1F2B00DC49E72A002838824000259C4200DC4DE73F49E41A27
:402B40001140D4E60243501E8241D3B2002222E7002B00D0F3E0631C9C465B055B0D012B00DC9FE0344B9C4500D1C3E0AA180918AA42804140424118CD0752081543490890
:402B80006446B4E62C4B9C4200D0ECE6AFE611001F3CE1400C00202B00D17FE04021CB1A9A4015436A1E95410021254300242DE733000700203BDF403B00202E70D04027B6
:402BC000BE1BB0400243501E824113430022E2E6002C4FD0184CA44500D1ABE08024240476422143382E00DDDFE01F2E00DD43E12027BC1BA1460C004F46BC40A0462C0076
:402C00004746F4403C434F46BD406F1EBD41F1402C43151BAA429241411A5242891A64469A46BFE641464546314300D0BEE6002600240025F2E6C046FF070000FFFF7FFF1E
:402C4000FFFF0F801F2B59DC2027FF1ABC46070063469F405B46B9461700DF40B8464F4643461F4363469A40531E9A415B463A43D840F4E60C002C435CD0F643002E55D1F0
:402C8000551BAA42A441411A6442091B9A46644688E6964FBC4200D0D8E628E6002280E700208FE70B002B43002C00D0C2E0002B00D101E10300134300D118E6AB18AB424B
:402CC000B6410918764271180A0200D409E1884A1D00114064460AE6002C5BD10E002E4300D08AE00100114300D1C2E0010015009A46FCE56446002100258FE620235B42E2
:402D00009C46DC4463460700DF405B46BC46202B00D1ACE040235F46DB1B98400243501E8241634613431A00002098E66F4CA44500D057E70100150064469A46D7E5002C3A
:402D400039D10C002C436ED0DB43002B1AD0674CA44568D0382B00DDA4E01F2B00DDAEE020240F00E41AA740B9462F00DF40B846A3464F46444627435C46A5406C1EA54124
:402D8000D9403D43AD1895429B4109185B42591864466BE60C002C4315D1010011437BD0010015009A46514CA1E50D43691E8D410021ECB22DE74D4CA44534D080242404F4
:402DC0005B422143C6E7040014434ED0ED084C072C438025C9082D03294208D0C6082E4205D1D208410711430C009A463100620FC900E50011433D4C79E50600164300D1DB
:402E000075E5AE1AB0464545BF410E1A7F42F61B370200D4F4E5551BAA42B641411A7642891B9A4663E50100150064465FE5002200257BE5002B3BD00300134315D0ED08CA
:402E40004B072B438025C9082D03294207D0C4082C4204D141070B002100D2081343C9005A0F1143DD00214C41E5204C3FE5002054E700260025D1E534000F00203CE7404F
:402E80003C00202E2BD04027BE1BB1400D43691E8D4100212C43BCE6802100260903134C0025BBE50D43691E8D410021EDB269E7010015000D4C1AE50100150017E51C003D
:402EC0000F00203CE7403C00202B0CD04027FB1A99400D43691E8D410021254352E70021D4E71D0092E50021F3E7C046FF070000FFFF7FFFF0B556464D4644465F46F0B487
:402F00001D000E034C00CB0F87B0070092468146360B640D98466AD06D4B9C4235D08022430F12041343F6001E43C3009946694B00279C460023644402932B0368001B0BC9
:402F4000ED0F51469B46400D009500D178E0604B98426CD05B46DA004B0F802109040B4313439B465346D9005A4B9C46002360444246201A6A40924601901F430F2F00D9FB
:402F8000B0E05548BF00C0598746374300D088E0002399460233082700260293CDE74346B34649460093029B009A9246022B00D0BFE1002153460122002689461A40444BAD
:402FC000002136030C0D2405360B2643434C1B0526401E437600D207760816434846310007B03CBC90469946A246AB46F0BD330003434FD0002E00D1BCE1300001F0E4F914
:4030000003000B3B1C2B00DDADE11D220100D31A08393A008F408E40DA40B9461643304B00279C46002360444442029385E753465A4613432CD1002300219B46023397E7A8
:403040000B4320D05B46002B00D19EE1584601F0BBF903000B3B1C2B00DD8FE102005946083A91408B461D21CB1A5146D9400B0059460B4351469B469140194B9C46604453
:403080004042002374E7002300219B4601336FE703236DE70023994601330427002602934BE703230C27029347E70122D51A382D00DCB0E153461A4000210023002689466D
:4030C0007EE700238026994600223603004B77E7FF07000001FCFFFFE8480000FFFF0F80F30300005E4500D972E100D16DE1019B4D46013B01930023340002935B461E0271
:403100000B0E1E430B020393330C994633041B0C494620000093FFF70DFA009B370043430600494620009846FFF78AFA2C0C09040C43A04509D9E419731EA74200D95CE16A
:40314000A04500D859E1023EE4194346E41A49462000FFF7EFF90300009A80465343494620009B46FFF76CFA2A040904120C0A4393450DD94346D219013B974200D93AE141
:40318000934500D837E102235B429C46D219E0445B46D21A4346360433439B460399180C0B0C1D00059309045B46090C0C001B041B0C4443049159436B4368431B190D0CEE
:4031C000EB189C4203D980246402A44660441C0C09041B04090C20185D18824200D2DEE000D1D7E0161A029B9C465D1BAC459B415B42F61AB74200D106E149463000FFF781
:4032000099F9009B04004343494630009846FFF717FA2E0C09040E43B04509D9F619631EB74200D9F3E0B04500D8F0E0023CF6194346F31A494618000293FFF77BF9009BCE
:4032400006004343494602989846FFF7F9F92D0409042D0C0D43A84509D9ED19731EAF4200D9D6E0A84500D8D3E0023EED192404210043463143049E059A3000ED1A0B049B
:403280000C0C1B0C58436643534354439A19030C9B189E4203D980225202944664441A0C00041B04000C14191B18A54250D34DD001231943964A019B94466344002B00DC55
:4032C000F3E64A0709D00F220A40042A05D00A1D8A42894149428B4411005A46D20108D55A468C4B1A4093468022D2009446019B6344894A934200DD5BE65A46C90850070C
:4033000008435602514601225B058146360B5B0D0A4055E680231B031E4211D05A461A420ED15E461E433603360B2A0089467B4B46E6032B00D1E1E0012BBBD11A40BBE621
:403340001E433603360B4246744B39E6002BB1D07D194A1EAF4252D91100A542A8D1039A9A42A5D1A6E703003E00283B9E400023994654E601F028F8203041E60300524678
:40338000283B9A400021934677E6504601F01CF820305EE6029B0026AB4200D323E7039E0299B44661448846B045B6415B467642F619B218013B0291974213D290424FD870
:4033C00000D18EE0161A9B460DE7894500D28EE674084B46F60735005B081D434B46DB0702938BE69742EDD10399029CA142E5D93E1A9B46F7E69846CAE61E00A5E6AC424D
:403400003ED874D0110053E70121494252E71C000EE71E002BE71F2D3CDC20230A0058465B1B9840EA4099400243481E81415E461143EE404B0709D00F230B40042B05D0E1
:403440000B00191D99429B415B42F61833023CD55346012200211A40002601238946AFE502235B429C46039CE344A446029B63449846A045B6417642F6190293B218B1E670
:4034800003988A1E41008142B6417642F619AD19039161E71F225242D31A5A46DA401300202D29D040225846551BA8400143481E814107200B4318400026002809D00F22A7
:4034C00000261A401900042ABBD10B0070077602360BDB0803439946012253461A4000236EE502998D42BBD89B4600267BE603989842C5D3110032E70020D7E780265B46E9
:4035000036031E433603360B009A8946034B57E5FF030000FFFFFFFEFE070000FF070000F0B55F4656464D464446F0B41F035C00DB0F9A46194B0E034D00C90F8046360BEC
:403540006D0D8B4691463F0B640D9D4219D0134B9C421BD00123A54206D018003CBC90469946A246AB46F0BDBE42F6D1C845F4D1D34510D0002DF0D1304303005A1E934112
:40358000EBE7310001230143E7D1E0E73A430123002AE2D1DEE70023DFE7C046FF070000F0B55F46444656464D46F0B41F033C0B2C4F0E034D00A3465C008446360B6D0D36
:4035C000C90F9046640DDB0FBD422BD0254FBC422ED0002D0ED130430700814678427841002C17D15F463A4314D14B460020002B0AD006E0002C02D15846024301D0994253
:403600001AD00123484218433CBC90469946A246AB46F0BD0028F2D058425841012240421043F1E737000743D0D002204042EBE75F461743CDD0F8E7A542E2DC05DB5E453D
:40364000DFD808D000205E45DED248424841012340421843D8E7C445D3D80020C445F4D3D2E7C046FF070000F0B55F464D4644465646F0B41C03240BA4462F4C0F034D0053
:403680005E00C90F80463F0B6D0D8B469146760DDB0FA54220D0284CA64222D0002D12D1384344424441002E20D0002C0DD05C42634101245B421C4320003CBC9046994623
:4036C000A246AB46F0BD002E17D05B4519D05B465C4201231C43EFE7390002240143EBD1D9E7614602241143E6D1D7E761460A43DBD100240028DFD0E9E761460A43E4D145
:40370000E5E7B54203DD01225C421443D4E7B542CDDB6745DBD809D000246745CCD259464C426141012449420C43C5E7C845CED80024C845F3D3BFE7FF070000F0B55F46B4
:4037400056464D464446F0B40D0399464E002B0B87B00700924680469B46760DCC0F002E69D06D4B9E4235D05B468022DD001204430F13432B439B46C3009846674B0027B3
:403780009C460023664401934A4615035000D20F53462D0B400D914600D176E05E4A90426CD080225B0F120413435C4AED0094461D4353460022DB00604449463618701C33
:4037C0006140029017430F2F00D9AFE05448BF00C759BF465B461F4300D088E000239B469846023308270193CEE74946022A6AD0032A00D109E2012A00D0BBE11140002264
:40380000002300259046CCB200212D030A0D12052D0B1543434A1B0515401D436D00E4076D0825434046290007B03CBC90469946A246AB46F0BD034352D05B46002B00D1A8
:403840008AE1584600F0C0FD03000B3B1C2B00DD7BE11D22D31A3A0001005D46DA4008398D4013008F402B439B46B8462E4B00279C46002360444642019385E752462A4392
:403880002CD100250023022297E752462A4321D0002D00D154E1280000F096FD03000B3B1C2B00DD46E11D21CB1A51460200D9405346083A954093400D431B4A944660442E
:4038C0004042002279E7012400220C40124B0025904699E70025002301226EE703226CE700239B4698460133042701934CE703230C27019348E700238025984600242D0303
:40390000054B81E75D464346019A6FE75D4643462100019A6AE7C046FF07000001FCFFFF28490000FFFF0F80F30300004246120C91461A0C9446424617044A461B041B0C88
:403940005A43604690464A4642431000039262461C003F0C7A437C4342440192220C9246019A5244904506D98246802040028046C24450460390100C049048462404240CB0
:403980001204121905922A0C2D042D0C68432C00824648467C4350438146200C8046574357444744BA4503D9802040028046C144380C3F04B84648442404240C0190049879
:4039C000A044404404905846000C814658460404200C8246070048465F434C464343604660436446834650464443380C8446E4186444A34203D980235B029C46E34448468E
:403A00003F04230C3F0C2404E419574668436F4384464D46504655434243380C814662444A445B44944503D9802040028446654403983F04834604983F0C8446E344C3452B
:403A4000804140428246100484460198674484466744A344BC46A345A4419946D44464428742BF41D4458041E144A04699459B417F424042C8440743120CBA18A045A44196
:403A80005F423B0064422343D71843467D19DB0D6D021D435B465A02059B1A43531E9A415B46DB0D1A4343465B021343EA0107D501225C0813402343EA07029E13436D088E
:403AC000574AB218002A4BDD580709D00F201840042805D0181D98429B415B42ED180300E80104D54F4A15408022D200B2184E48824200DDE7E60124DB08680718436D0286
:403B0000530580462D0B5B0D0C407DE6802259461203114208D0154206D115432D0398462D0B4C46414B6FE65D4615432D032D0B3E4B69E603005546283B9D400023BCE67A
:403B4000504600F041FC2030A8E60300283B9F400023BB46984689E600F036FC203073E60124A61A382E07DD00220C4000230025904649E6029EA3E71F2E20DC20222C0058
:403B80001800921BF040944093400443581E83411C43F540630709D00F232340042B05D023001C1D9C4292415242AD182B021FD5012400220C4001230025904624E61F20F6
:403BC0002C004042821AD440202E1CD04022961BB5402B43581E83410720234318400025002809D00F2200251A401C00042AD8D1230068076D022D0B0124DB08034398466A
:403C00000C40002300E60025E3E780220124120315432D0398462D0B0C40044BF4E5C046FF030000FFFFFFFEFE070000FF070000F0B557464E464546E0B40E001100F20F2F
:403C40009246C500420F180337037400400A4E0F7F0A3043CF4E17435A00640D520DDB0FC900B24200D1E5E001267340A61AB446534500D1AFE0002E00DC0DE1002A3AD153
:403C800003000B4300D0E4E06B0709D00F232B40042B05D02B1DAB42AD416D427F191D003B0200D488E0BB4B01349C4200D110E13A00B94B51461A4001235007ED08520265
:403CC00064050543120B640D0B400021280012030D0D120B64052D0515436208AF4CDB072C401443640064081C4321001CBC90469946A246F0BDA74B9C42C5D080231B040F
:403D000018436346382B00DDFDE01F2B00DD30E1624620239B1A02009A40664690460A009940F24046464B1E99413243114363460200DA40691A8D429B410D00BA1A5B420E
:403D4000D71A3B0235D57A02530A98464346002B00D1C4E0404600F037FB0300083B1F2B00DDC5E020222900D21A4746D1409F400A009D403A439C4200DDC0E01C1B631C28
:403D80001F2B00DDE4E0202114002800C91AD8408C408D400443DA40681E854117002543002471E7424663461A4300D14CE2674645466B0700D069E7012351467807ED08D9
:403DC000FA080B40054373498C4238D012036405120B640D79E7002E00DC9AE0002A47D06C4A944200D14FE78022120410436246382A00DC08E10143481E81410022C9B2F5
:403E00004919D219A942BF410D007F42BF183A0200D442E15F4A0134944200D14EE101205D4A69083A4028400843D507054357089A4629E706000E4300D017E714E729009C
:403E4000114300D1F9E1802109030A431203120B3BE701235B429846C4446346002B72D1691A8D429B413F1A5B42FF1A0D0068E702000A4300D107E7012252429046C444FB
:403E80006246002A00D0E6E06918A942B6413F187642F7190D00BAE7002E00D080E0621C5205520D012A00DCF9E06A1A91464D45B6413A1A7642921B9046120200D499E024
:403EC0004D1BA9428941C71B49427A1A90469A463CE752460123002513400022F5E6280000F072FA20300300083B1F2B00DC39E72A002838824000259C4200DC3EE7264F75
:403F0000E41A1740C0E60143481E81410022C9B210E7002E00D0F1E0621C94465205520D012A00DCA0E01B4A944500D1C5E06918A94292413F185242D2194908D5070D43DC
:403F400057086446A0E6134B9C4200D0D9E69BE611001F3CE1400C00202B00D180E04021CB1A9A4015436A1E95410027254300241FE763460200203BDA406346202B71D06D
:403F8000402366469B1B98400143481E814111430022CFE6FF070000FFFF7FFFFFFF0F80002C48D0CA4CA24200D1A2E07442A1468024240427434C46382C00DDDBE01F2C81
:403FC00000DD44E14E462024A41B3E00A640A246B0464C462E00E640B4464646644626435446A5406C1EA54134002C434D46EF400D1B28E04A4643464D461A4300D0A5E6BF
:40400000002300240025DEE61F2A5ADC66462022921B060096409146B04662460E00D640424616434A4691404A1E9141020060463143C240E4E63C002C435AD0F443A1466A
:40404000002C52D14D1BA9428941C71B49427F1A14009A4675E69E4A944200D0C7E613E600227FE700208FE7002C00D0C8E03B002B4300D10FE103000B4300D104E6691892
:40408000A9429B413F185B42DF193B0200D41AE1904B0D001F406446F6E59A4689E63A002A43002C5CD1002A75D102000A4300D1CAE007000D009A46E6E56446002200253C
:4040C00081E662460600203AD6406246B046202A00D1B7E040226646921B904001434246481E8141114300228AE6794CA24200D061E707000D0014009A46C5E5002C41D1D5
:404100003C002C4378D0F443A146002C20D0704CA24271D04C46382C00DDB2E01F2C00DDBCE02026341BA2463C005646B4404E46A0462C00F440A446444666463443A446A4
:404140005446A54064466E1EB54125434C46E7406D188D4289413F184942CF19140056E6002A2FD102000A4300D184E007000D009A46574C88E53D436F1EBD41ECB20027B9
:404180000D1B60E7524CA24236D0744280263604A1463743BEE702000A4300D174E56A1A90464545B6413A1A7642921B9446120200D4F7E54D1BA9428941C71B49427F1A9E
:4041C0009A4661E502000A433AD0ED087C072C438025FA082D032A4208D0C7082F4205D145072C003A009A46C9080C43670FD200E5001743364C47E507000D00140043E5F1
:404200003A002A4343D002000A4319D0ED087C072C438025FA082D032A4207D0C6082E4204D147073C003200C9080C43D700620FE50017439A46264C26E50022002544E548
:40424000234C21E5002049E700230025BBE54C463E00203CE6404C46B446202C31D040244E46A61BB7403D436C1EA54164462C4300270D1BE7E6802200231203144C002532
:40428000A1E53D436F1EBD410027EDB260E707000D000F4CF8E407000D00F5E44E463C00203EF440A0464C46202C0ED040244E46A41BA7403D436F1EBD4144460027254362
:4042C00046E70027CFE70D0073E50027F2E7C046FF070000FFFF7FFF0B0330B5134D1A0B4B005B0DC90F0024AB4211DD104CA34210DC8024640322430E4CE41A1F2C0CDD9C
:404300000D48C31ADA4013005C42002900D11C00200030BD094BCC18FAE7E040084CA44663449A4013000343EEE7C046FE0300001D0400003304000013040000FFFFFF7F45
:40434000EDFBFFFF70B5002830D0C317C4185C40C50F200000F038F8174B184A1B1AD21A1F2A18DD164AD21A9440002224035B05240B5B0D0021100024030A0D1205240B6C
:404380001443104A1B0514401C436400ED0764082C43210070BD210091400A000B21081AC4405B052403240B5B0DE3E70025002300240022DEE7C0461E0400003304000010
:4043C00013040000FFFF0F801C2101231B04984201D3000C10391B0A984201D3000A08391B09984201D30009043902A2105C40187047C0460403020201010101000000002C
:4044000000000000014B18687047C046400100200E4B70B500251E000D4CE41AA410A54204D0AB00F35898470135F8E700F09EFA084B00251E00084CE41AA410A54204D042
:40444000AB00F35898470135F8E770BD78490000784900007849000080490000002310B59A4203D0CC5CC4540133F9E710BD03008218934202D019700133FAE770470000C8
:40448000000000000000000000300F40000280320F40800100400F400004000000320F40604600008000000001000F403F300F4028310F4020320F4036330F4003400F401E
:4044C00001420F4006430F4002600F4081110405060A0C0E1C031E0428042A09360F3880544058045B045F01810782018338842E85048680882289808A4C8B048C208D0474
:404500008ED08F8090D89184920194D195849608980299569A0C9B099C109D019E26A0D9A184A50AA710A8D9ACD9AD60B17FB201B380B40EB6F0B780B902BAA0BE04BF445B
:40454000D602D724D804D904DB04DF0101800320055006C007200A010E55132015011602171019801C101D401E04260827822E022F21360537A03E556010625067086D01D5
:404580006E5A6F51760287808980C0F5C2F1C4D2CAD0CCF0CEF0D82EE002E680860296039A039C01B403C023C101C260C7B0C820C901CAFFCBFFCC23CE80CF08D004D80432
:4045C000DA04DF01E2C0E440E501E610E711E8C0E901EB11EC40ED01EE40EF01000405120602072009A80E16175118041DB01E431F202408254827282F2035023728380880
:404600003B083E0141A845A84A084D0A4E08530156905D185E405F026401880189528C0492149601970A9A029B539D109E909F20A208A720C0F4C2E7C4D0CA40CCE0CE80B4
:40464000D07ED224D6F0D81061208920D84087015B015F088F089B01D603E40201011001029900621C002300210018001A000000000400000210186818CC00301300240046
:404680001800020000AE0051180002001A000000200000070F78138000002028000001402301600000CEFD000FFFFFFF0200700804000000090000000404040400000001F0
:4046C0000000C00040011011C00100114001400100000000000000000000000000000000030405060708090A0B0C0E0F101112131415161718191B1C1D1E1F2021222325D3
:40470000262728292A2B2E2F3031323334350000FB21F93FFB2109407CD91240FB2119407A6A1F407CD92240BBFD2540FB2129403A462C407A6A2F405C4731407CD932406F
:404740009C6B3440BBFD3540DB8F3740FB2139401BB43A403A463C405AD83D407A6A3F404C7E40405C4741406C1042407CD942408CA243409C6B4440AC344540BBFD4540A3
:40478000CBC64640DB8F4740EB584840FB21494083F9A200444E6E00FC291500D1572700DD34F50062DBC0003C999500419043006351FE00BBDEAB00B761C5003A6E2400BA
:4047C000D24D42004906E00009EA2E001C92D100EB1DFE0029B11C00E83EA700F535820044BB2E009CE98400B4267000417E5F00D6913900538339009CF439008B5F840090
:4048000028F9BD00F81F3B00DEFF97000F980500112FEF000A5A8B006D1F6D00CF7E360009CB2700464FB7009E663F002DEA5F00BA277500E5EBC7003D7BF100F7390700C1
:4048400092528A00FB6BEA001FB15F00085D8D00300356007BFC4600F0AB6B0020BCCF0036F49A00E3A91D005E619100081BE60085996500A0145F008D40680080D8FF007A
:4048800027734D0006063100CA561500C9A873007BE260006B8CC0000200000003000000040000000600000000000040FB21F93F000000002D44743E000000809846F83CEF
:4048C0000000006051CC783B00000080831BF0390000004020257A38000000802282E336000000001DF36935E4300000B22F0000B8300000A82F0000B8300000C230000091
:40490000B8300000A82F0000B22F0000B22F0000C2300000A82F00009E2F00009E2F00009E2F0000143300002C390000EC370000EC370000EA370000043900000439000039
:40494000F6380000EA37000004390000F638000004390000EA3700000C3900000C3900000C3900000C3B000043000000F8B5C046F8BC08BC9E467047AD020000C10600008A
:40498000F8B5C046F8BC08BC9E46704785020000A0490000C800002080000000280000000000000000366E01C05D0000180000000000E02E01000000000000000000000048
:4049C0000000000000000000000000000000000000000000000000006849000000000000000000000000000000000000000000000000000000000000000000000000000006
:404A0000000000000000000000000000000000000000000000000000E000002000000000000000000000000000000000000000000000000000000000000000000000000076
:404A40000000000000000000000000000000000000000000000000000000000000000000000000000000000000000000000000000000000000000000000000000000000036
:404A800000000000000000000000000000000000000000000000000000000000000000000000000000000000000000000000000000000000000000000000000000000000F6
:404AC00000000000000000000000000000000000000000000000000000000000000000000000000000000000000000000000000000000000000000000000000000000000B6
:404B00000000000000000000000000000000000000000000000000000000000000000000000000000000000000000000000000000000000000000000000000000000000075
:0200000490303A
:0200000076AADE
:0200000490402A
:200000000000000000000000000000000000000000000000000000000000000000000000E0
:0200000490501A
:0C000000000204C81193110104E1883DC6
:0200000490600A
:0100000001FE
:00000001FF