:400000000010002011000000ED040000ED04000080B500AF00F074FA80B500AF124B124A12688021C9020A431A60182000F0C4FF0D4B0D4A12680D490A401A600C4B0D4A35
:400040001A600D4B10221A600C4B802212061A60054B00221A600A4B0A4A1A600A4B00221A60BD4680BDC04600010B40FFFFFBFF04010B40060000803002024008010B404F
:4000800000000240010000800C020B4080B586B000AF72B61723FB1800221A7026E01723FB181A78131C5B009B185B00624A9B183B613B691A78597809020A4399780904F4
:4000C0000A43DB781B061343191C3B691A795B791B0213439BB2081C191C00F08FFA1723FB181A781723FB1801321A701723FB181B78022BD3D91723FB1800221A7038E064
:400100001723FB181A78131C9B009B185B004B4A9B18FB60FB681A78597809020A43997809040A43DB781B061343BB60FB681A79597909020A43997909040A43DB791B06F6
:4001400013437B60BA1CFB68197A5B7A1B020B431380BB1C1B88B9687A68081C111C1A1C00F05CFA1723FB181A781723FB1801321A701723FB181B78002BC1D0304A314BEA
:40018000101C191C00F05CFA2F4BC02292041A602E4B2F4A1A602F4B992212041A602E4B802292051A602D4B992212041A602C4B992212041A602B4B992212041A602A4B14
:4001C000C42292051A60294A284B1B78DBB202210B43DBB21370264A254B1B78DBB23C218B43DBB214210B43DBB213701F4A1F4B1B78DBB216210B43DBB213701D4BC32261
:400200001A601D4B1D4A1A601D4BC02252031A601C4B40221A601C4B802212031A601B4BF0221A601A4B1B4A1A60FFF7F5FE00F047FABD4606B080BD481400005C140000F5
:400240006814000088140000000001400C00014000EE030300500F4008500F4010500F4020500F4030500F4038500F4000700F4001700F400000044008000440920D580084
:400280000801044000020440080204400003044008030440B66D590010B5064C2378002B07D1054B002B02D0044800E000BF0123237010BD48010020000000003C14000021
:4002C00008B5084B002B03D00748084900E000BF07480368002B00D108BD064B002BFBD09847F9E7000000003C1400004C010020C80000200000000090B587B002AF786086
:400300000023FB601CE0FB689A1CFB689C1C7B680093101C02217E22231C00F089FCFB687E22D11AFB687E22D41A7B680093081C7E210222231C00F07BFCFB680533FB601E
:40034000FB687D2BDFDDBD4605B090BD90B585B002AF3B1D3E221A80BB1C3E221A8000F0E5F9012000F0ECFC012000F083FF012000F0A6FF012000F057FF584B181C00F025
:400380000BFABB1D00221A8013E03B1D0020185EBB1C0021595EBB1D00229A5E80231B0100F090FABB1D1B889BB201339AB2BB1D1A80BB1D00229B5E272BE6DDBB1D1F220E
:4003C0001A8016E03B1D0021595EBB1C00229A5EBB1D00201B5E424C081C111C1A1C231C00F070FABB1D1B889BB201339AB2BB1D1A80BB1D00229B5E212BE3DD3B1D0022FA
:400400009B5E143B191CBB1C00229B5E0D3B1A1C3448334C80231B010093231C00F0D6FB3B1D0021595EBB1C00229B5E0D3B1A1C2D482B4C80231B010093231C00F0C6FBB4
:40044000274B181CFFF758FF012000F013FF012000F036FF012000F0E7FE00F065FF031E05D1002000F02CFFF020FFF745FF00F085FF031E0AD1002000F022FF002000F0A9
:40048000D3FEFF231B01181CFFF736FF00F05AFF031E05D1002000F0EDFE0F20FFF72CFF00F05EFF031E07D1002000F0BDFEF0231B01181CFFF720FF00F028FF031E0CD1A5
:4004C000002000F0D7FE002000F0AEFE002000F0F7FE034B181CFFF70FFFB5E7130D0000FF0F0000401400004414000080B500AF00F066FF031C1B680C2B00D1FEE7FEE7AD
:4005000080B586B000AF224B7B61224B3B61204B7B6135E03B691B68FB603B695B68BB603B699B683B6000237B600CE0FB681A68BB681A60BB680433BB60FB680433FB60D7
:400540007B6804337B607A683B689A42EED13B69DB683B6000237B6008E0BB6800221A60BB680433BB607B6804337B607A683B689A42F2D13B6910333B617B69013B7B6132
:400580007B69002BC6D100F021FFFFF7DFFEFEE701000000041D000080B582B000AF00237B600FE07B68032B04D8104B7A689200D35800E00E4B0F4A796889008B507B6807
:4005C00001337B607B682F2BECD9FFF75FFD0A4B00221A608023DB058022D205126801210A431A60BD4602B080BDC04600000000ED04000000000020C000002080B582B0F8
:4006000000AF786039607A683B68101C00211A1C00F00BFFBD4602B080BDC04680B584B000AFF860B9607A60F968BA687B68081C111C1A1C00F0F0FEBD4604B080BDC04678
:4006400080B586B000AF7860396000233B6100237B612FE07B699B007A68D3181B68BB600F23FB18BA681A70BB68FF229343BB6018E03B695B003A68D3181B781A1CBB68A2
:40068000D318191C3B695B003A68D3185B780B703B6901333B610F23FB181A780F23FB18013A1A700F23FB181B78002BE1D17B6901337B617B69072BCCD9BD4606B080BD91
:4006C00080B500AFBD4680BD80B582B000AF7860C04600F0E7FB031C1A1C11231340F8D07B689BB2181C00F0FDFBBD4602B080BD80B584B000AF78607B689AB20E23FB18CB
:40070000802149000A431A80C04600F0CBFB031C1A1C11231340F8D00E23FB181B88181C00F0E0FBBD4604B080BDC04680B500AF00F09EFB142000F063FD002000F024FB88
:40074000C82000F039FDFF2000F01EFBC82000F033FD1120FFF7B8FF0320FFF7B5FF2920FFF7B2FF3A20FFF7AFFF0320FFF7C0FF3620FFF7A9FF2520FFF7A6FF3020FFF7B0
:40078000B7FF0020FFF7A0FF3C2000F04FF8002000F002F8BD4680BD80B584B000AF78602B20FFF791FF0020FFF7A2FF8320FFF79FFF2A20FFF788FF0020FFF799FF83202A
:4007C000FFF796FF2C20FFF77FFF0023FB601AE07B681B111A1CFF231340181CFFF788FF7B681B01FF221A407B681B121343181CFFF77EFF7B68FF221340181CFFF778FF4C
:40080000FB680133FB60FB68054A9342E0D9054B00221A60044B00221A60BD4604B080BD83210000640100206801002080B582B000AF78607B687F2213407B602520FFF72E
:4008400043FF7B68181CFFF753FFBD4602B080BD80B584B000AFF860B9607A60BB688322D31ABB60FB688322D31AFB602B20FFF72BFFFB68DBB2181CFFF73AFFFB68DBB2B4
:40088000181CFFF735FF2A20FFF71EFFBB68DBB2181CFFF72DFFBB68DBB2181CFFF728FF2C20FFF711FF7B681B11DBB2181CFFF71FFF7B681B01DBB2181CFFF719FFBD466F
:4008C00004B080BD80B58AB000AFF860B9607A603B607B680122D31A7B6200233B627A68131CDB079B1A5B00FB610023BB617B687B61BA687B68D218F9683B68081C111CD2
:400900001A1CFFF7A5FFBA687B68D21AF9683B68081C111C1A1CFFF79BFFFA687B68D118BA683B68081C111C1A1CFFF791FFFA687B68D11ABA683B68081C111C1A1CFFF769
:4009400087FF77E07B6A002B09DB7B69013B7B61FB690233FB617A6AFB69D3187B62BB690133BB613B6A02333B623B6A01337A6AD3187B62FA68BB69D118BA687B69D218D6
:400980003B68081C111C1A1CFFF762FFFA68BB69D11ABA687B69D2183B68081C111C1A1CFFF756FFFA68BB69D118BA687B69D21A3B68081C111C1A1CFFF74AFFFA68BB6990
:4009C000D11ABA687B69D21A3B68081C111C1A1CFFF73EFFFA687B69D118BA68BB69D2183B68081C111C1A1CFFF732FFFA687B69D11ABA68BB69D2183B68081C111C1A1C82
:400A0000FFF726FFFA687B69D118BA68BB69D21A3B68081C111C1A1CFFF71AFFFA687B69D11ABA68BB69D21A3B68081C111C1A1CFFF70EFFBA697B699A4283DBBD460AB073
:400A400080BDC04680B590B000AFB9607A603B600F23FB18021C1A707B688322D31A7B60BB688222D31ABB60574B7B627B6A1B783B627B6A01331B78FB617B6A02331B782C
:400A8000BB610F23FB181B781F3BBA6953431A1CBB69D318013B7A6AD318BB622B20FFF713FEBB68DBB2181CFFF722FEBB68DAB2FB69DBB2D318DBB2013BDBB2181CFFF76B
:400AC00017FE2A20FFF700FE7B68DBB2181CFFF70FFE7B68DAB23B6ADBB2D318DBB2013BDBB2181CFFF704FE2C20FFF7EDFDBB69013BBA6AD318BB62FB69013BFB635DE0FB
:400B0000BB6A5A1EBA621722BA181B7813703723FB1801221A700023BB6348E01723FB183722BA181B7812781340DBB2002B02D1BB6C3B6301E03B683B633723FA18372338
:400B4000FB181B78DB1813701723FB183722BA181B7812781340DBB2002B02D1BB6CFB6201E03B68FB623723FA183723FB181B78DB1813703B6B1B111A1CFF231340181CEE
:400B8000FFF7B6FD3B6B1B01FF221A40FB6A1B120F210B401343181CFFF7AAFDFB6AFF221340181CFFF7A4FDBB6B0233BB63BA6B3B6A9A42B2DBFB6B013BFB63FB6B002B3A
:400BC0009EDABD4610B080BD9C16000090B589B002AFF860B9607A603B60BB681033BB607B6808337B607B687B611AE0FB685A1CFA601878B9687A683C68BB6A0093231C22
:400C0000FFF720FF7B6808337B607B68832B04DDBB681033BB607B697B60BB68832B00DD03E0FB681B78002BE0D1BD4607B090BD80B58AB000AFF860B9607A603B603A68E4
:400C4000BB68D31A7B627A68FB68D31A3B627B6A002B06DA7B6A5B427B6201235B42BB6101E00123BB613B6A002B06DA3B6A5B423B6201235B42FB6101E00123FB617B6A79
:400C80005B007B623B6A5B003B62F968BA683B6B081C111C1A1CFFF7DBFD3A6A7B6A9A4225DD3B6A5B107A6AD31A7B611AE07B69002B07DBBA68BB69D318BB607A693B6AFE
:400CC000D31A7B61FA68FB69D318FB607A697B6AD3187B61F968BA683B6B081C111C1A1CFFF7B6FDFA687B689A42E0D124E07B6A5B103A6AD31A3B611AE03B69002B07DB39
:400D0000FA68FB69D318FB603A697B6AD31A3B61BA68BB69D318BB603A693B6AD3183B61F968BA683B6B081C111C1A1CFFF790FDBA683B689A42E0D1BD460AB080BDC046F6
:400D400080B584B000AF021CFB1D1A700D4B1B68DAB20F23FB1801218A431A70FB1D1B7801221340D9B20F23FB180F22BA1812780A431A70034B0F22BA1812781A60BD46C9
:400D800004B080BD0003044080B584B000AF021CFB1D1A700E4B1B68DAB20F23FB1802218A431A70FB1D1B78DB18DBB202221340D9B20F23FB180F22BA1812780A431A7026
:400DC000034B0F22BA1812781A60BD4604B080BD0003044080B500AF084B11221A7000F09BF800F05FF800F06DF8054B00221A70044B00221A70BD4680BDC04681000F4043
:400E000082000F4080000F4090B583B000AFFC1D00F0CCFA031C2370124A124B1B78DBB220210B43DBB213700F4A0F4B1B78DBB210210B43DBB213700C4A0C4B1B78DBB2C3
:400E400010210B43DBB21370FB1D1B78181C00F0B1FA00F0A3F800F01DF800F01FF8BD4603B090BD91000F4092000F4090000F4080B500AF064B1B78002B04D1FFF7AAFFC8
:400E8000034B01221A70FFF7BFFFBD4680BDC0466C01002080B500AFBD4680BD80B500AFBD4680BD80B582B000AF054AFB1D12781A70FB1D1B78181CBD4602B080BDC04600
:400EC00062000F4080B582B000AF054AFB1D12781A70FB1D1B78181CBD4602B080BDC04660000F4080B582B000AF021CBB1D1A80C046074B1B78DBB21A1C04231340F8D094
:400F0000044ABB1D1B881380BD4602B080BDC04662000F4084100F4090B583B000AF01E01A4B1B881A4B1B78DBB21A1C20231340F6D1FC1D00F03AFA031C2370154A154BF3
:400F40001B78DBB201210B43DBB21370114A114B1B78DBB201218B43DBB213700E4A0E4B1B78DBB201210B43DBB213700A4A0A4B1B78DBB201218B43DBB21370FB1D1B7835
:400F8000181C00F017FABD4603B090BDA4100F4060000F4092000F4093000F4080B500AF044B044A1268802109060A431A60BD4680BDC0460000024090B585B000AF786089
:400FC0000C23FC1800F0F2F9031C23707B68022B00D8B4E07B68302B00D9B0E05E4B1B78DBB21A1E7B689A420AD35C4A0F23FB1812781A705A4A0E23FB1812781A703FE047
:40100000584B1B78DBB21A1E7B689A420AD3564A0F23FB1812781A70544A0E23FB1812781A702DE0524B1B78DBB21A1E7B689A420AD3504A0F23FB1812781A704E4A0E23D0
:40104000FB1812781A701BE04C4B1B78DBB21A1E7B689A420AD34A4A0F23FB1812781A70484A0E23FB1812781A7009E0464A0F23FB1812781A70454A0E23FB1812781A7033
:401080007B68DA1E0B23FB1841498A5C1A700B23FB181B782F2B0DD97B682A2B0AD93D4B19221A60052000F077F90D23FB1819221A7007E0374B1B68DAB20D23FB183F2106
:4010C0000A401A700B23FA180D23FB1812781B789A4208D22F4B7A68033A2D498A5C1A60052000F059F97B68284A9A180A23FB1812781A70284B0A22BA1812781A60274BAE
:401100000F22BA1812781A60254B0E22BA1812781A60052000F074F80B23FA180D23FB1812781B789A4209D91A4B7A68033A18498A5C1A60052000F02FF903E002E00020EC
:4011400000F030F80C23FB181B78181C00F032F9BD4605B090BDC046C0F1FF0FC1F1FF0FC2F1FF0FC3F1FF0FC4F1FF0FC5F1FF0FC6F1FF0FC7F1FF0FC8F1FF0FC9F1FF0F85
:40118000CAF1FF0FCBF1FF0FCCF1FF0FCDF1FF0FAC1C00002CFF0B4028FF0B401CFF0B4020FF0B4080B582B000AF021CFB1D1A7001BEBD4602B080BD80B582B000AF786010
:4011C00009E00C4B1B68181C00F0E6F87B680A4A944663447B607A6880231B029A42F0D8064B1B687A685343181C00F0D5F8BD4602B080BDD80000200080FFFFD0000020BC
:4012000080B582B000AF021CBB1D1A80BB1D1B88044A12785343181C00F0BEF8BD4602B080BDC046D400002080B584B000AF021CFB1D1A700E4B1B68DAB20F23FB18402173
:401240008A431A70FB1D1B789B01DBB240221340D9B20F23FB180F22BA1812780A431A70034B0F22BA1812781A60BD4604B080BD0001044080B584B000AF021CFB1D1A70F4
:401280000E4B1B68DAB20F23FB1808218A431A70FB1D1B78DB00DBB208221340D9B20F23FB180F22BA1812780A431A70034B0F22BA1812781A60BD4604B080BD00000440B0
:4012C00080B584B000AF021CFB1D1A700E4B1B68DAB20F23FB1804218A431A70FB1D1B789B00DBB204221340D9B20F23FB180F22BA1812780A431A70034B0F22BA18127892
:401300001A60BD4604B080BD0000044080B500AF044B1B68402213409B09DBB2181CBD4680BDC0460402044080B500AF044B1B6880221340DB09DBB2181CBD4680BDC04605
:401340000400044080B500AF044B1B68DBB201221340DBB2181CBD4680BDC0460400044080B500AF044B1B68202213405B09DBB2181CBD4680BDC0460403044080B500AF38
:40138000044B1B6880221340DB09DBB2181CBD4680BDC046040304400230800804D0C0460138FDD1C046C046C0467047EFF3108072B6704780F310887047C046C046C046A7
:4013C000014B18687047C046400100200E4B70B500251E1C0D4CE41AA410A54204D0AB00F35898470135F8E700F07AFC084B00251E1C084CE41AA410A54204D0AB00F358A7
:4014000098470135F8E770BDEC1C0000EC1C0000EC1C0000F41C0000002310B5934203D0CC5CC4540133F9E710BD031C8218934202D019700133FAE77047000000000000FD
:40144000535055004543530000300F40000280320F40800100400F400004000000320F401C1600008000000001000F403F300F4026310F4020320F4037330F4003400F4030
:4014800008430F4002600F4081110405060A0C0E1C031E0428042A09360F3880544058045B045F01810782018338842E85048680882289808A4C8B048C208D048ED08F8007
:4014C00090D89184920194D195849608980299569A0C9B099C109D019E26A0D9A184A50AA710A8D9ACD9AD60B17FB201B380B40EB6F0B780B902BAA0BE04BF44D602D72466
:40150000D804D904DB04DF0101800320055006C007200A010E55132015011602171019801C101D401E04260827822E022F21360537A03E556010625067086D016E5A6F5190
:4015400076028980C0F5C2F1C4D2CAD0CCF0CEF0D82EE680860296039A039C01B403C023C101C260C7B0C820C901CAFFCBFFCC23CE80CF08D004D804DA04DF01E2C0E4408F
:40158000E501E610E711E8C0E901EB11EC40ED01EE40EF01000405120602072009A80E16175118041DB01E431F202408254827282F203502372838083B083E0141A845A81C
:4015C0004A084D0A4E08530156905D185E405F026401880189528C0492149601970A9A029B539D109E909F20A208A720B380C0F4C2E7C4D0CA40CCE0CE80D07ED224D6F040
:40160000D81061208920D84066818E019A80B280D601D801E402EC0401011001029900621C002300210018001A000000000400000210186818CC003013002400180002009B
:4016400000AE0051180002001A000000200000070F78138000002028000001402301600000CEFD000FFFFFFF02007008040000000900000004040404000000010000C000BA
:4016800040011011C0010011400140010000000000000000000000000000000008101000000000000000000000000000081010000000000000000000000000000000000024
:4016C0000000000000000000000000000000183C3C3C181818001818000000000063636322000000000000000000000000000036367F3636367F3636000000000C0C3E632A
:4017000061603E030343633E0C0C000000000000006163060C183363000000000000001C36361C3B6E66663B000000000030303060000000000000000000000000000C18BC
:40174000183030303018180C000000000000180C0C060606060C0C18000000000000000042663CFF3C6642000000000000000000181818FF18181800000000000000000087
:4017800000000000000018181830000000000000000000FF00000000000000000000000000000000000018180000000000000103070E1C3870E0C0800000000000003E63E4
:4017C00063636B6B6363633E0000000000000C1C3C0C0C0C0C0C0C3F0000000000003E6303060C183061637F0000000000003E6303031E030303633E000000000000060E37
:401800001E3666667F06060F0000000000007F6060607E030363733E0000000000001C3060607E636363633E0000000000007F630306060C0C1818180000000000003E6371
:4018400063633E636363633E0000000000003E636363633F0303063C000000000000000000181800000018180000000000000000001818000000181818300000000000063B
:401880000C18306030180C06000000000000000000007E00007E0000000000000000006030180C060C1830600000000000003E6363060C0C0C000C0C0000000000003E63C9
:4018C000636F6B6B6E60603E000000000000081C366363637F6363630000000000007E3333333E333333337E0000000000001E33616060606061331E0000000000007C3674
:40190000333333333333367C0000000000007F3331343C343031337F0000000000007F3331343C34303030780000000000001E336160606F6363371D0000000000006363D9
:4019400063637F63636363630000000000003C18181818181818183C0000000000000F06060606060666663C000000000000733336363C3636333373000000000000783085
:40198000303030303031337F00000000000063777F6B6363636363630000000000006363737B7F6F676363630000000000001C36636363636363361C0000000000007E3365
:4019C00033333E30303030780000000000003E6363636363636B6F3E0607000000007E3333333E36363333730000000000003E6363301C060363633E000000000000FFDB85
:401A0000991818181818183C0000000000006363636363636363633E00000000000063636363636363361C0800000000000063636363636B6B7F3636000000000000C3C343
:401A4000663C18183C66C3C3000000000000C3C3C3663C181818183C0000000000007F6343060C183061637F0000000000003C30303030303030303C00000000000080C0EB
:401A8000E070381C0E0703010000000000003C0C0C0C0C0C0C0C0C3C00000000081C3663000000000000000000000000000000000000000000000000FF00000018180C0099
:401AC00000000000000000000000000000000000003C46063E66663B0000000000007030303C36333333336E0000000000000000003E63606060633E0000000000000E0627
:401B0000061E36666666663B0000000000000000003E63637E60633E0000000000001C3632307C30303030780000000000000000003B666666663E06663C00000000703034
:401B400030363B33333333730000000000000C0C001C0C0C0C0C0C1E0000000000000606000E060606060666663C000000007030303333363C3633730000000000001C0C0B
:401B80000C0C0C0C0C0C0C1E0000000000000000006E7F6B6B6B6B6B0000000000000000006E3333333333330000000000000000003E63636363633E0000000000000000A4
:401BC000006E333333333E303078000000000000003B666666663E06060F000000000000006E3B33303030780000000000000000003E63380E03633E0000000000000818DA
:401C0000187E181818181B0E0000000000000000006666666666663B000000000000000000636336361C1C080000000000000000006363636B6B7F360000000000000000C0
:401C40000063361C1C1C366300000000000000000063636363633F03063C000000000000007F660C1830637F0000000000000E18181870181818180E0000000000001818EC
:401C80001818180018181818180000000000701818180E18181818700000000000003B6E000000000000000000000000030405060708090A0B0C0E0F101112131415161721
:401CC00018191B1C1D1E1F2021222325262728292A2B2E2F303132333435000043000000F8B5C046F8BC08BC9E467047C102000099050000F8B5C046F8BC08BC9E467047C8
:401D000099020000181D0000C80000208000000028000000000000000000000000366E01C05D0000180000000000E02E01000000000000000000000000000000000000005A
:401D400000000000000000000000000000000000DC1C000000000000000000000000000000000000000000000000000000000000000000000000000000000000000000006B
:401D800000000000000000000000000000000000E0000020000000000000000000000000000000000000000000000000000000000000000000000000000000000000000023
:401DC00000000000000000000000000000000000000000000000000000000000000000000000000000000000000000000000000000000000000000000000000000000000E3
:401E000000000000000000000000000000000000000000000000000000000000000000000000000000000000000000000000000000000000000000000000000000000000A2
:401E40000000000000000000000000000000000000000000000000000000000000000000000000000000000000000000000000000000000000000000000000000000000062
:401E80000000000000000000000000000000000000000000000000000000000000000000000000000000000000000000000000000000000000000000000000000000000022
:0200000490303A
:02000000567533
:0200000490402A
:200000000000000000000000000000000000000000000000000000000000000000000000E0
:0200000490501A
:0C000000000204C81193110104D168082B
:0200000490600A
:0100000001FE
:00000001FF